{
  "_format": "hh-sol-artifact-1",
  "contractName": "gasChallenge",
  "sourceName": "contracts/gasChallenge.sol",
  "abi": [
    {
      "inputs": [],
      "stateMutability": "nonpayable",
      "type": "constructor"
    },
    {
      "inputs": [],
      "name": "getSumOfArray",
      "outputs": [
        {
          "internalType": "uint256",
          "name": "",
          "type": "uint256"
        }
      ],
      "stateMutability": "view",
      "type": "function"
    },
    {
      "inputs": [],
      "name": "notOptimizedFunction",
      "outputs": [],
      "stateMutability": "nonpayable",
      "type": "function"
    },
    {
      "inputs": [],
      "name": "optimizedFunction",
      "outputs": [],
      "stateMutability": "nonpayable",
      "type": "function"
    }
  ],
  "bytecode": "0x6080604052604051806101400160405280600160ff168152602001600260ff168152602001600360ff168152602001600460ff168152602001600560ff168152602001600660ff168152602001600760ff168152602001600860ff168152602001600960ff168152602001600a60ff16815250600090600a6100829291906100fa565b5034801561008f57600080fd5b5061009e6100a960201b60201c565b600a81905550610240565b6000806000905060005b600a8110156100f257600081600a81106100d0576100cf61015c565b5b0154826100dd91906101c4565b915080806100ea906101f8565b9150506100b3565b508091505090565b82600a810192821561012e579160200282015b8281111561012d578251829060ff1690559160200191906001019061010d565b5b50905061013b919061013f565b5090565b5b80821115610158576000816000905550600101610140565b5090565b7f4e487b7100000000000000000000000000000000000000000000000000000000600052603260045260246000fd5b6000819050919050565b7f4e487b7100000000000000000000000000000000000000000000000000000000600052601160045260246000fd5b60006101cf8261018b565b91506101da8361018b565b92508282019050808211156101f2576101f1610195565b5b92915050565b60006102038261018b565b91507fffffffffffffffffffffffffffffffffffffffffffffffffffffffffffffffff820361023557610234610195565b5b600182019050919050565b61020c8061024f6000396000f3fe608060405234801561001057600080fd5b50600436106100415760003560e01c806368b5f223146100465780637ce418941461005057806380d2c8031461005a575b600080fd5b61004e610078565b005b6100586100b4565b005b6100626100f2565b60405161006f9190610115565b60405180910390f35b60005b600a8110156100b15760008082600a811061009957610098610130565b5b018190555080806100a99061018e565b91505061007b565b50565b60005b600a8110156100e75760008082600a81106100d5576100d4610130565b5b018190555080806001019150506100b7565b506000600a81905550565b6000600a54905090565b6000819050919050565b61010f816100fc565b82525050565b600060208201905061012a6000830184610106565b92915050565b7f4e487b7100000000000000000000000000000000000000000000000000000000600052603260045260246000fd5b7f4e487b7100000000000000000000000000000000000000000000000000000000600052601160045260246000fd5b6000610199826100fc565b91507fffffffffffffffffffffffffffffffffffffffffffffffffffffffffffffffff82036101cb576101ca61015f565b5b60018201905091905056fea2646970667358221220f455ff33a0647ad11e56bf373937c69aea43a0eeba2102953e7e1724d3dd714e64736f6c63430008120033",
  "linkReferences": {},
  "deployedLinkReferences": {}
}