{"contracts/gasChallenge.sol":{"gasChallenge":{"abi":[{"inputs":[],"stateMutability":"nonpayable","type":"constructor"},{"inputs":[],"name":"getSumOfArray","outputs":[{"internalType":"uint256","name":"","type":"uint256"}],"stateMutability":"view","type":"function"},{"inputs":[],"name":"notOptimizedFunction","outputs":[],"stateMutability":"nonpayable","type":"function"},{"inputs":[],"name":"optimizedFunction","outputs":[],"stateMutability":"nonpayable","type":"function"}],"evm":{"bytecode":{"linkReferences":{},"object":"6080604052604051806101400160405280600160ff168152602001600260ff168152602001600360ff168152602001600460ff168152602001600560ff168152602001600660ff168152602001600760ff168152602001600860ff168152602001600960ff168152602001600a60ff16815250600090600a6100829291906100fa565b5034801561008f57600080fd5b5061009e6100a960201b60201c565b600a81905550610240565b6000806000905060005b600a8110156100f257600081600a81106100d0576100cf61015c565b5b0154826100dd91906101c4565b915080806100ea906101f8565b9150506100b3565b508091505090565b82600a810192821561012e579160200282015b8281111561012d578251829060ff1690559160200191906001019061010d565b5b50905061013b919061013f565b5090565b5b80821115610158576000816000905550600101610140565b5090565b7f4e487b7100000000000000000000000000000000000000000000000000000000600052603260045260246000fd5b6000819050919050565b7f4e487b7100000000000000000000000000000000000000000000000000000000600052601160045260246000fd5b60006101cf8261018b565b91506101da8361018b565b92508282019050808211156101f2576101f1610195565b5b92915050565b60006102038261018b565b91507fffffffffffffffffffffffffffffffffffffffffffffffffffffffffffffffff820361023557610234610195565b5b600182019050919050565b61020c8061024f6000396000f3fe608060405234801561001057600080fd5b50600436106100415760003560e01c806368b5f223146100465780637ce418941461005057806380d2c8031461005a575b600080fd5b61004e610078565b005b6100586100b4565b005b6100626100f2565b60405161006f9190610115565b60405180910390f35b60005b600a8110156100b15760008082600a811061009957610098610130565b5b018190555080806100a99061018e565b91505061007b565b50565b60005b600a8110156100e75760008082600a81106100d5576100d4610130565b5b018190555080806001019150506100b7565b506000600a81905550565b6000600a54905090565b6000819050919050565b61010f816100fc565b82525050565b600060208201905061012a6000830184610106565b92915050565b7f4e487b7100000000000000000000000000000000000000000000000000000000600052603260045260246000fd5b7f4e487b7100000000000000000000000000000000000000000000000000000000600052601160045260246000fd5b6000610199826100fc565b91507fffffffffffffffffffffffffffffffffffffffffffffffffffffffffffffffff82036101cb576101ca61015f565b5b60018201905091905056fea2646970667358221220f455ff33a0647ad11e56bf373937c69aea43a0eeba2102953e7e1724d3dd714e64736f6c63430008120033","opcodes":"PUSH1 0x80 PUSH1 0x40 MSTORE PUSH1 0x40 MLOAD DUP1 PUSH2 0x140 ADD PUSH1 0x40 MSTORE DUP1 PUSH1 0x1 PUSH1 0xFF AND DUP2 MSTORE PUSH1 0x20 ADD PUSH1 0x2 PUSH1 0xFF AND DUP2 MSTORE PUSH1 0x20 ADD PUSH1 0x3 PUSH1 0xFF AND DUP2 MSTORE PUSH1 0x20 ADD PUSH1 0x4 PUSH1 0xFF AND DUP2 MSTORE PUSH1 0x20 ADD PUSH1 0x5 PUSH1 0xFF AND DUP2 MSTORE PUSH1 0x20 ADD PUSH1 0x6 PUSH1 0xFF AND DUP2 MSTORE PUSH1 0x20 ADD PUSH1 0x7 PUSH1 0xFF AND DUP2 MSTORE PUSH1 0x20 ADD PUSH1 0x8 PUSH1 0xFF AND DUP2 MSTORE PUSH1 0x20 ADD PUSH1 0x9 PUSH1 0xFF AND DUP2 MSTORE PUSH1 0x20 ADD PUSH1 0xA PUSH1 0xFF AND DUP2 MSTORE POP PUSH1 0x0 SWAP1 PUSH1 0xA PUSH2 0x82 SWAP3 SWAP2 SWAP1 PUSH2 0xFA JUMP JUMPDEST POP CALLVALUE DUP1 ISZERO PUSH2 0x8F JUMPI PUSH1 0x0 DUP1 REVERT JUMPDEST POP PUSH2 0x9E PUSH2 0xA9 PUSH1 0x20 SHL PUSH1 0x20 SHR JUMP JUMPDEST PUSH1 0xA DUP2 SWAP1 SSTORE POP PUSH2 0x240 JUMP JUMPDEST PUSH1 0x0 DUP1 PUSH1 0x0 SWAP1 POP PUSH1 0x0 JUMPDEST PUSH1 0xA DUP2 LT ISZERO PUSH2 0xF2 JUMPI PUSH1 0x0 DUP2 PUSH1 0xA DUP2 LT PUSH2 0xD0 JUMPI PUSH2 0xCF PUSH2 0x15C JUMP JUMPDEST JUMPDEST ADD SLOAD DUP3 PUSH2 0xDD SWAP2 SWAP1 PUSH2 0x1C4 JUMP JUMPDEST SWAP2 POP DUP1 DUP1 PUSH2 0xEA SWAP1 PUSH2 0x1F8 JUMP JUMPDEST SWAP2 POP POP PUSH2 0xB3 JUMP JUMPDEST POP DUP1 SWAP2 POP POP SWAP1 JUMP JUMPDEST DUP3 PUSH1 0xA DUP2 ADD SWAP3 DUP3 ISZERO PUSH2 0x12E JUMPI SWAP2 PUSH1 0x20 MUL DUP3 ADD JUMPDEST DUP3 DUP2 GT ISZERO PUSH2 0x12D JUMPI DUP3 MLOAD DUP3 SWAP1 PUSH1 0xFF AND SWAP1 SSTORE SWAP2 PUSH1 0x20 ADD SWAP2 SWAP1 PUSH1 0x1 ADD SWAP1 PUSH2 0x10D JUMP JUMPDEST JUMPDEST POP SWAP1 POP PUSH2 0x13B SWAP2 SWAP1 PUSH2 0x13F JUMP JUMPDEST POP SWAP1 JUMP JUMPDEST JUMPDEST DUP1 DUP3 GT ISZERO PUSH2 0x158 JUMPI PUSH1 0x0 DUP2 PUSH1 0x0 SWAP1 SSTORE POP PUSH1 0x1 ADD PUSH2 0x140 JUMP JUMPDEST POP SWAP1 JUMP JUMPDEST PUSH32 0x4E487B7100000000000000000000000000000000000000000000000000000000 PUSH1 0x0 MSTORE PUSH1 0x32 PUSH1 0x4 MSTORE PUSH1 0x24 PUSH1 0x0 REVERT JUMPDEST PUSH1 0x0 DUP2 SWAP1 POP SWAP2 SWAP1 POP JUMP JUMPDEST PUSH32 0x4E487B7100000000000000000000000000000000000000000000000000000000 PUSH1 0x0 MSTORE PUSH1 0x11 PUSH1 0x4 MSTORE PUSH1 0x24 PUSH1 0x0 REVERT JUMPDEST PUSH1 0x0 PUSH2 0x1CF DUP3 PUSH2 0x18B JUMP JUMPDEST SWAP2 POP PUSH2 0x1DA DUP4 PUSH2 0x18B JUMP JUMPDEST SWAP3 POP DUP3 DUP3 ADD SWAP1 POP DUP1 DUP3 GT ISZERO PUSH2 0x1F2 JUMPI PUSH2 0x1F1 PUSH2 0x195 JUMP JUMPDEST JUMPDEST SWAP3 SWAP2 POP POP JUMP JUMPDEST PUSH1 0x0 PUSH2 0x203 DUP3 PUSH2 0x18B JUMP JUMPDEST SWAP2 POP PUSH32 0xFFFFFFFFFFFFFFFFFFFFFFFFFFFFFFFFFFFFFFFFFFFFFFFFFFFFFFFFFFFFFFFF DUP3 SUB PUSH2 0x235 JUMPI PUSH2 0x234 PUSH2 0x195 JUMP JUMPDEST JUMPDEST PUSH1 0x1 DUP3 ADD SWAP1 POP SWAP2 SWAP1 POP JUMP JUMPDEST PUSH2 0x20C DUP1 PUSH2 0x24F PUSH1 0x0 CODECOPY PUSH1 0x0 RETURN INVALID PUSH1 0x80 PUSH1 0x40 MSTORE CALLVALUE DUP1 ISZERO PUSH2 0x10 JUMPI PUSH1 0x0 DUP1 REVERT JUMPDEST POP PUSH1 0x4 CALLDATASIZE LT PUSH2 0x41 JUMPI PUSH1 0x0 CALLDATALOAD PUSH1 0xE0 SHR DUP1 PUSH4 0x68B5F223 EQ PUSH2 0x46 JUMPI DUP1 PUSH4 0x7CE41894 EQ PUSH2 0x50 JUMPI DUP1 PUSH4 0x80D2C803 EQ PUSH2 0x5A JUMPI JUMPDEST PUSH1 0x0 DUP1 REVERT JUMPDEST PUSH2 0x4E PUSH2 0x78 JUMP JUMPDEST STOP JUMPDEST PUSH2 0x58 PUSH2 0xB4 JUMP JUMPDEST STOP JUMPDEST PUSH2 0x62 PUSH2 0xF2 JUMP JUMPDEST PUSH1 0x40 MLOAD PUSH2 0x6F SWAP2 SWAP1 PUSH2 0x115 JUMP JUMPDEST PUSH1 0x40 MLOAD DUP1 SWAP2 SUB SWAP1 RETURN JUMPDEST PUSH1 0x0 JUMPDEST PUSH1 0xA DUP2 LT ISZERO PUSH2 0xB1 JUMPI PUSH1 0x0 DUP1 DUP3 PUSH1 0xA DUP2 LT PUSH2 0x99 JUMPI PUSH2 0x98 PUSH2 0x130 JUMP JUMPDEST JUMPDEST ADD DUP2 SWAP1 SSTORE POP DUP1 DUP1 PUSH2 0xA9 SWAP1 PUSH2 0x18E JUMP JUMPDEST SWAP2 POP POP PUSH2 0x7B JUMP JUMPDEST POP JUMP JUMPDEST PUSH1 0x0 JUMPDEST PUSH1 0xA DUP2 LT ISZERO PUSH2 0xE7 JUMPI PUSH1 0x0 DUP1 DUP3 PUSH1 0xA DUP2 LT PUSH2 0xD5 JUMPI PUSH2 0xD4 PUSH2 0x130 JUMP JUMPDEST JUMPDEST ADD DUP2 SWAP1 SSTORE POP DUP1 DUP1 PUSH1 0x1 ADD SWAP2 POP POP PUSH2 0xB7 JUMP JUMPDEST POP PUSH1 0x0 PUSH1 0xA DUP2 SWAP1 SSTORE POP JUMP JUMPDEST PUSH1 0x0 PUSH1 0xA SLOAD SWAP1 POP SWAP1 JUMP JUMPDEST PUSH1 0x0 DUP2 SWAP1 POP SWAP2 SWAP1 POP JUMP JUMPDEST PUSH2 0x10F DUP2 PUSH2 0xFC JUMP JUMPDEST DUP3 MSTORE POP POP JUMP JUMPDEST PUSH1 0x0 PUSH1 0x20 DUP3 ADD SWAP1 POP PUSH2 0x12A PUSH1 0x0 DUP4 ADD DUP5 PUSH2 0x106 JUMP JUMPDEST SWAP3 SWAP2 POP POP JUMP JUMPDEST PUSH32 0x4E487B7100000000000000000000000000000000000000000000000000000000 PUSH1 0x0 MSTORE PUSH1 0x32 PUSH1 0x4 MSTORE PUSH1 0x24 PUSH1 0x0 REVERT JUMPDEST PUSH32 0x4E487B7100000000000000000000000000000000000000000000000000000000 PUSH1 0x0 MSTORE PUSH1 0x11 PUSH1 0x4 MSTORE PUSH1 0x24 PUSH1 0x0 REVERT JUMPDEST PUSH1 0x0 PUSH2 0x199 DUP3 PUSH2 0xFC JUMP JUMPDEST SWAP2 POP PUSH32 0xFFFFFFFFFFFFFFFFFFFFFFFFFFFFFFFFFFFFFFFFFFFFFFFFFFFFFFFFFFFFFFFF DUP3 SUB PUSH2 0x1CB JUMPI PUSH2 0x1CA PUSH2 0x15F JUMP JUMPDEST JUMPDEST PUSH1 0x1 DUP3 ADD SWAP1 POP SWAP2 SWAP1 POP JUMP INVALID LOG2 PUSH5 0x6970667358 0x22 SLT KECCAK256 DELEGATECALL SSTORE SELFDESTRUCT CALLER LOG0 PUSH5 0x7AD11E56BF CALLDATACOPY CODECOPY CALLDATACOPY 0xC6 SWAP11 0xEA NUMBER LOG0 0xEE 0xBA 0x21 MUL SWAP6 RETURNDATACOPY PUSH31 0x1724D3DD714E64736F6C634300081200330000000000000000000000000000 "},"methodIdentifiers":{"getSumOfArray()":"80d2c803","notOptimizedFunction()":"68b5f223","optimizedFunction()":"7ce41894"}}}}}